{
  "_format": "hh-sol-artifact-1",
  "contractName": "MockReputation",
  "sourceName": "contracts/mocks/MockReputation.sol",
  "abi": [
    {
      "anonymous": false,
      "inputs": [
        {
          "indexed": true,
          "internalType": "address",
          "name": "freelancer",
          "type": "address"
        },
        {
          "indexed": false,
          "internalType": "uint256",
          "name": "score",
          "type": "uint256"
        }
      ],
      "name": "ReputationUpdated",
      "type": "event"
    },
    {
      "inputs": [
        {
          "internalType": "address",
          "name": "freelancer",
          "type": "address"
        },
        {
          "internalType": "uint256",
          "name": "score",
          "type": "uint256"
        }
      ],
      "name": "updateReputation",
      "outputs": [],
      "stateMutability": "nonpayable",
      "type": "function"
    }
  ],
  "bytecode": "0x608060405234801561001057600080fd5b506101d7806100206000396000f3fe608060405234801561001057600080fd5b506004361061002b5760003560e01c8063f5c91a0814610030575b600080fd5b61004a60048036038101906100459190610137565b61004c565b005b8173ffffffffffffffffffffffffffffffffffffffff167ffc577563f1b9a0461e24abef1e1fcc0d33d3d881f20b5df6dda59de4aae2c821826040516100929190610186565b60405180910390a25050565b600080fd5b600073ffffffffffffffffffffffffffffffffffffffff82169050919050565b60006100ce826100a3565b9050919050565b6100de816100c3565b81146100e957600080fd5b50565b6000813590506100fb816100d5565b92915050565b6000819050919050565b61011481610101565b811461011f57600080fd5b50565b6000813590506101318161010b565b92915050565b6000806040838503121561014e5761014d61009e565b5b600061015c858286016100ec565b925050602061016d85828601610122565b9150509250929050565b61018081610101565b82525050565b600060208201905061019b6000830184610177565b9291505056fea2646970667358221220ee799f022c78cad778253b96e4991e1d17e102a11106d93488fe51d39adebc7764736f6c63430008140033",
  "linkReferences": {},
  "deployedLinkReferences": {}
}