{
  "_format": "hh-sol-artifact-1",
  "contractName": "MilestoneNFT",
  "sourceName": "contracts/MilestoneNFT.sol",
  "abi": [
    {
      "inputs": [],
      "stateMutability": "nonpayable",
      "type": "constructor"
    },
    {
      "inputs": [
        {
          "internalType": "address",
          "name": "sender",
          "type": "address"
        },
        {
          "internalType": "uint256",
          "name": "balance",
          "type": "uint256"
        },
        {
          "internalType": "uint256",
          "name": "needed",
          "type": "uint256"
        },
        {
          "internalType": "uint256",
          "name": "tokenId",
          "type": "uint256"
        }
      ],
      "name": "ERC1155InsufficientBalance",
      "type": "error"
    },
    {
      "inputs": [
        {
          "internalType": "address",
          "name": "approver",
          "type": "address"
        }
      ],
      "name": "ERC1155InvalidApprover",
      "type": "error"
    },
    {
      "inputs": [
        {
          "internalType": "uint256",
          "name": "idsLength",
          "type": "uint256"
        },
        {
          "internalType": "uint256",
          "name": "valuesLength",
          "type": "uint256"
        }
      ],
      "name": "ERC1155InvalidArrayLength",
      "type": "error"
    },
    {
      "inputs": [
        {
          "internalType": "address",
          "name": "operator",
          "type": "address"
        }
      ],
      "name": "ERC1155InvalidOperator",
      "type": "error"
    },
    {
      "inputs": [
        {
          "internalType": "address",
          "name": "receiver",
          "type": "address"
        }
      ],
      "name": "ERC1155InvalidReceiver",
      "type": "error"
    },
    {
      "inputs": [
        {
          "internalType": "address",
          "name": "sender",
          "type": "address"
        }
      ],
      "name": "ERC1155InvalidSender",
      "type": "error"
    },
    {
      "inputs": [
        {
          "internalType": "address",
          "name": "operator",
          "type": "address"
        },
        {
          "internalType": "address",
          "name": "owner",
          "type": "address"
        }
      ],
      "name": "ERC1155MissingApprovalForAll",
      "type": "error"
    },
    {
      "inputs": [
        {
          "internalType": "address",
          "name": "owner",
          "type": "address"
        }
      ],
      "name": "OwnableInvalidOwner",
      "type": "error"
    },
    {
      "inputs": [
        {
          "internalType": "address",
          "name": "account",
          "type": "address"
        }
      ],
      "name": "OwnableUnauthorizedAccount",
      "type": "error"
    },
    {
      "anonymous": false,
      "inputs": [
        {
          "indexed": true,
          "internalType": "address",
          "name": "account",
          "type": "address"
        },
        {
          "indexed": true,
          "internalType": "address",
          "name": "operator",
          "type": "address"
        },
        {
          "indexed": false,
          "internalType": "bool",
          "name": "approved",
          "type": "bool"
        }
      ],
      "name": "ApprovalForAll",
      "type": "event"
    },
    {
      "anonymous": false,
      "inputs": [
        {
          "indexed": true,
          "internalType": "address",
          "name": "previousOwner",
          "type": "address"
        },
        {
          "indexed": true,
          "internalType": "address",
          "name": "newOwner",
          "type": "address"
        }
      ],
      "name": "OwnershipTransferred",
      "type": "event"
    },
    {
      "anonymous": false,
      "inputs": [
        {
          "indexed": true,
          "internalType": "address",
          "name": "operator",
          "type": "address"
        },
        {
          "indexed": true,
          "internalType": "address",
          "name": "from",
          "type": "address"
        },
        {
          "indexed": true,
          "internalType": "address",
          "name": "to",
          "type": "address"
        },
        {
          "indexed": false,
          "internalType": "uint256[]",
          "name": "ids",
          "type": "uint256[]"
        },
        {
          "indexed": false,
          "internalType": "uint256[]",
          "name": "values",
          "type": "uint256[]"
        }
      ],
      "name": "TransferBatch",
      "type": "event"
    },
    {
      "anonymous": false,
      "inputs": [
        {
          "indexed": true,
          "internalType": "address",
          "name": "operator",
          "type": "address"
        },
        {
          "indexed": true,
          "internalType": "address",
          "name": "from",
          "type": "address"
        },
        {
          "indexed": true,
          "internalType": "address",
          "name": "to",
          "type": "address"
        },
        {
          "indexed": false,
          "internalType": "uint256",
          "name": "id",
          "type": "uint256"
        },
        {
          "indexed": false,
          "internalType": "uint256",
          "name": "value",
          "type": "uint256"
        }
      ],
      "name": "TransferSingle",
      "type": "event"
    },
    {
      "anonymous": false,
      "inputs": [
        {
          "indexed": false,
          "internalType": "string",
          "name": "value",
          "type": "string"
        },
        {
          "indexed": true,
          "internalType": "uint256",
          "name": "id",
          "type": "uint256"
        }
      ],
      "name": "URI",
      "type": "event"
    },
    {
      "inputs": [
        {
          "internalType": "address",
          "name": "account",
          "type": "address"
        },
        {
          "internalType": "uint256",
          "name": "id",
          "type": "uint256"
        }
      ],
      "name": "balanceOf",
      "outputs": [
        {
          "internalType": "uint256",
          "name": "",
          "type": "uint256"
        }
      ],
      "stateMutability": "view",
      "type": "function"
    },
    {
      "inputs": [
        {
          "internalType": "address[]",
          "name": "accounts",
          "type": "address[]"
        },
        {
          "internalType": "uint256[]",
          "name": "ids",
          "type": "uint256[]"
        }
      ],
      "name": "balanceOfBatch",
      "outputs": [
        {
          "internalType": "uint256[]",
          "name": "",
          "type": "uint256[]"
        }
      ],
      "stateMutability": "view",
      "type": "function"
    },
    {
      "inputs": [
        {
          "internalType": "address",
          "name": "client",
          "type": "address"
        },
        {
          "internalType": "uint256",
          "name": "id",
          "type": "uint256"
        }
      ],
      "name": "completeMilestone",
      "outputs": [],
      "stateMutability": "nonpayable",
      "type": "function"
    },
    {
      "inputs": [
        {
          "internalType": "address",
          "name": "client",
          "type": "address"
        }
      ],
      "name": "createMilestone",
      "outputs": [
        {
          "internalType": "uint256",
          "name": "",
          "type": "uint256"
        }
      ],
      "stateMutability": "nonpayable",
      "type": "function"
    },
    {
      "inputs": [
        {
          "internalType": "address",
          "name": "account",
          "type": "address"
        },
        {
          "internalType": "address",
          "name": "operator",
          "type": "address"
        }
      ],
      "name": "isApprovedForAll",
      "outputs": [
        {
          "internalType": "bool",
          "name": "",
          "type": "bool"
        }
      ],
      "stateMutability": "view",
      "type": "function"
    },
    {
      "inputs": [],
      "name": "nextMilestoneId",
      "outputs": [
        {
          "internalType": "uint256",
          "name": "",
          "type": "uint256"
        }
      ],
      "stateMutability": "view",
      "type": "function"
    },
    {
      "inputs": [],
      "name": "owner",
      "outputs": [
        {
          "internalType": "address",
          "name": "",
          "type": "address"
        }
      ],
      "stateMutability": "view",
      "type": "function"
    },
    {
      "inputs": [],
      "name": "renounceOwnership",
      "outputs": [],
      "stateMutability": "nonpayable",
      "type": "function"
    },
    {
      "inputs": [
        {
          "internalType": "address",
          "name": "from",
          "type": "address"
        },
        {
          "internalType": "address",
          "name": "to",
          "type": "address"
        },
        {
          "internalType": "uint256[]",
          "name": "ids",
          "type": "uint256[]"
        },
        {
          "internalType": "uint256[]",
          "name": "values",
          "type": "uint256[]"
        },
        {
          "internalType": "bytes",
          "name": "data",
          "type": "bytes"
        }
      ],
      "name": "safeBatchTransferFrom",
      "outputs": [],
      "stateMutability": "nonpayable",
      "type": "function"
    },
    {
      "inputs": [
        {
          "internalType": "address",
          "name": "from",
          "type": "address"
        },
        {
          "internalType": "address",
          "name": "to",
          "type": "address"
        },
        {
          "internalType": "uint256",
          "name": "id",
          "type": "uint256"
        },
        {
          "internalType": "uint256",
          "name": "value",
          "type": "uint256"
        },
        {
          "internalType": "bytes",
          "name": "data",
          "type": "bytes"
        }
      ],
      "name": "safeTransferFrom",
      "outputs": [],
      "stateMutability": "nonpayable",
      "type": "function"
    },
    {
      "inputs": [
        {
          "internalType": "address",
          "name": "operator",
          "type": "address"
        },
        {
          "internalType": "bool",
          "name": "approved",
          "type": "bool"
        }
      ],
      "name": "setApprovalForAll",
      "outputs": [],
      "stateMutability": "nonpayable",
      "type": "function"
    },
    {
      "inputs": [
        {
          "internalType": "bytes4",
          "name": "interfaceId",
          "type": "bytes4"
        }
      ],
      "name": "supportsInterface",
      "outputs": [
        {
          "internalType": "bool",
          "name": "",
          "type": "bool"
        }
      ],
      "stateMutability": "view",
      "type": "function"
    },
    {
      "inputs": [
        {
          "internalType": "address",
          "name": "newOwner",
          "type": "address"
        }
      ],
      "name": "transferOwnership",
      "outputs": [],
      "stateMutability": "nonpayable",
      "type": "function"
    },
    {
      "inputs": [
        {
          "internalType": "uint256",
          "name": "",
          "type": "uint256"
        }
      ],
      "name": "uri",
      "outputs": [
        {
          "internalType": "string",
          "name": "",
          "type": "string"
        }
      ],
      "stateMutability": "view",
      "type": "function"
    }
  ],
  "bytecode": "0x60806040523480156200001157600080fd5b5033604051806020016040528060008152506200003481620000c260201b60201c565b50600073ffffffffffffffffffffffffffffffffffffffff168173ffffffffffffffffffffffffffffffffffffffff1603620000aa5760006040517f1e4fbdf7000000000000000000000000000000000000000000000000000000008152600401620000a19190620001e2565b60405180910390fd5b620000bb81620000d760201b60201c565b5062000560565b8060029081620000d3919062000479565b5050565b6000600360009054906101000a900473ffffffffffffffffffffffffffffffffffffffff16905081600360006101000a81548173ffffffffffffffffffffffffffffffffffffffff021916908373ffffffffffffffffffffffffffffffffffffffff1602179055508173ffffffffffffffffffffffffffffffffffffffff168173ffffffffffffffffffffffffffffffffffffffff167f8be0079c531659141344cd1fd0a4f28419497f9722a3daafe3b4186f6b6457e060405160405180910390a35050565b600073ffffffffffffffffffffffffffffffffffffffff82169050919050565b6000620001ca826200019d565b9050919050565b620001dc81620001bd565b82525050565b6000602082019050620001f96000830184620001d1565b92915050565b600081519050919050565b7f4e487b7100000000000000000000000000000000000000000000000000000000600052604160045260246000fd5b7f4e487b7100000000000000000000000000000000000000000000000000000000600052602260045260246000fd5b600060028204905060018216806200028157607f821691505b60208210810362000297576200029662000239565b5b50919050565b60008190508160005260206000209050919050565b60006020601f8301049050919050565b600082821b905092915050565b600060088302620003017fffffffffffffffffffffffffffffffffffffffffffffffffffffffffffffffff82620002c2565b6200030d8683620002c2565b95508019841693508086168417925050509392505050565b6000819050919050565b6000819050919050565b60006200035a620003546200034e8462000325565b6200032f565b62000325565b9050919050565b6000819050919050565b620003768362000339565b6200038e620003858262000361565b848454620002cf565b825550505050565b600090565b620003a562000396565b620003b28184846200036b565b505050565b5b81811015620003da57620003ce6000826200039b565b600181019050620003b8565b5050565b601f8211156200042957620003f3816200029d565b620003fe84620002b2565b810160208510156200040e578190505b620004266200041d85620002b2565b830182620003b7565b50505b505050565b600082821c905092915050565b60006200044e600019846008026200042e565b1980831691505092915050565b60006200046983836200043b565b9150826002028217905092915050565b6200048482620001ff565b67ffffffffffffffff811115620004a0576200049f6200020a565b5b620004ac825462000268565b620004b9828285620003de565b600060209050601f831160018114620004f15760008415620004dc578287015190505b620004e885826200045b565b86555062000558565b601f19841662000501866200029d565b60005b828110156200052b5784890151825560018201915060208501945060208101905062000504565b868310156200054b578489015162000547601f8916826200043b565b8355505b6001600288020188555050505b505050505050565b61243b80620005706000396000f3fe608060405234801561001057600080fd5b50600436106100e95760003560e01c80639201f6631161008c578063d9fb9bbf11610066578063d9fb9bbf14610248578063e985e9c514610278578063f242432a146102a8578063f2fde38b146102c4576100e9565b80639201f663146101f2578063a22cb46514610210578063d8e0ceaf1461022c576100e9565b80632eb2c2d6116100c85780632eb2c2d61461017e5780634e1273f41461019a578063715018a6146101ca5780638da5cb5b146101d4576100e9565b8062fdd58e146100ee57806301ffc9a71461011e5780630e89341c1461014e575b600080fd5b6101086004803603810190610103919061181f565b6102e0565b604051610115919061186e565b60405180910390f35b610138600480360381019061013391906118e1565b61033a565b6040516101459190611929565b60405180910390f35b61016860048036038101906101639190611944565b61041c565b6040516101759190611a01565b60405180910390f35b61019860048036038101906101939190611c20565b6104b0565b005b6101b460048036038101906101af9190611db2565b610558565b6040516101c19190611ee8565b60405180910390f35b6101d2610667565b005b6101dc61067b565b6040516101e99190611f19565b60405180910390f35b6101fa6106a5565b604051610207919061186e565b60405180910390f35b61022a60048036038101906102259190611f60565b6106ab565b005b6102466004803603810190610241919061181f565b6106c1565b005b610262600480360381019061025d9190611fa0565b6106d9565b60405161026f919061186e565b60405180910390f35b610292600480360381019061028d9190611fcd565b610723565b60405161029f9190611929565b60405180910390f35b6102c260048036038101906102bd919061200d565b6107b7565b005b6102de60048036038101906102d99190611fa0565b61085f565b005b600080600083815260200190815260200160002060008473ffffffffffffffffffffffffffffffffffffffff1673ffffffffffffffffffffffffffffffffffffffff16815260200190815260200160002054905092915050565b60007fd9b67a26000000000000000000000000000000000000000000000000000000007bffffffffffffffffffffffffffffffffffffffffffffffffffffffff1916827bffffffffffffffffffffffffffffffffffffffffffffffffffffffff1916148061040557507f0e89341c000000000000000000000000000000000000000000000000000000007bffffffffffffffffffffffffffffffffffffffffffffffffffffffff1916827bffffffffffffffffffffffffffffffffffffffffffffffffffffffff1916145b806104155750610414826108e5565b5b9050919050565b60606002805461042b906120d3565b80601f0160208091040260200160405190810160405280929190818152602001828054610457906120d3565b80156104a45780601f10610479576101008083540402835291602001916104a4565b820191906000526020600020905b81548152906001019060200180831161048757829003601f168201915b50505050509050919050565b60006104ba61094f565b90508073ffffffffffffffffffffffffffffffffffffffff168673ffffffffffffffffffffffffffffffffffffffff16141580156104ff57506104fd8682610723565b155b156105435780866040517fe237d92200000000000000000000000000000000000000000000000000000000815260040161053a929190612104565b60405180910390fd5b6105508686868686610957565b505050505050565b606081518351146105a457815183516040517f5b05999100000000000000000000000000000000000000000000000000000000815260040161059b92919061212d565b60405180910390fd5b6000835167ffffffffffffffff8111156105c1576105c0611a28565b5b6040519080825280602002602001820160405280156105ef5781602001602082028036833780820191505090505b50905060005b845181101561065c5761062c6106148287610a4f90919063ffffffff16565b6106278387610a6390919063ffffffff16565b6102e0565b82828151811061063f5761063e612156565b5b60200260200101818152505080610655906121b4565b90506105f5565b508091505092915050565b61066f610a77565b6106796000610afe565b565b6000600360009054906101000a900473ffffffffffffffffffffffffffffffffffffffff16905090565b60045481565b6106bd6106b661094f565b8383610bc4565b5050565b6106c9610a77565b6106d582826001610d34565b5050565b60006106e3610a77565b6000600460008154809291906106f8906121b4565b91905055905061071a8382600160405180602001604052806000815250610ddb565b80915050919050565b6000600160008473ffffffffffffffffffffffffffffffffffffffff1673ffffffffffffffffffffffffffffffffffffffff16815260200190815260200160002060008373ffffffffffffffffffffffffffffffffffffffff1673ffffffffffffffffffffffffffffffffffffffff16815260200190815260200160002060009054906101000a900460ff16905092915050565b60006107c161094f565b90508073ffffffffffffffffffffffffffffffffffffffff168673ffffffffffffffffffffffffffffffffffffffff161415801561080657506108048682610723565b155b1561084a5780866040517fe237d922000000000000000000000000000000000000000000000000000000008152600401610841929190612104565b60405180910390fd5b6108578686868686610e74565b505050505050565b610867610a77565b600073ffffffffffffffffffffffffffffffffffffffff168173ffffffffffffffffffffffffffffffffffffffff16036108d95760006040517f1e4fbdf70000000000000000000000000000000000000000000000000000000081526004016108d09190611f19565b60405180910390fd5b6108e281610afe565b50565b60007f01ffc9a7000000000000000000000000000000000000000000000000000000007bffffffffffffffffffffffffffffffffffffffffffffffffffffffff1916827bffffffffffffffffffffffffffffffffffffffffffffffffffffffff1916149050919050565b600033905090565b600073ffffffffffffffffffffffffffffffffffffffff168473ffffffffffffffffffffffffffffffffffffffff16036109c95760006040517f57f447ce0000000000000000000000000000000000000000000000000000000081526004016109c09190611f19565b60405180910390fd5b600073ffffffffffffffffffffffffffffffffffffffff168573ffffffffffffffffffffffffffffffffffffffff1603610a3b5760006040517f01a83514000000000000000000000000000000000000000000000000000000008152600401610a329190611f19565b60405180910390fd5b610a488585858585610f7f565b5050505050565b600060208202602084010151905092915050565b600060208202602084010151905092915050565b610a7f61094f565b73ffffffffffffffffffffffffffffffffffffffff16610a9d61067b565b73ffffffffffffffffffffffffffffffffffffffff1614610afc57610ac061094f565b6040517f118cdaa7000000000000000000000000000000000000000000000000000000008152600401610af39190611f19565b60405180910390fd5b565b6000600360009054906101000a900473ffffffffffffffffffffffffffffffffffffffff16905081600360006101000a81548173ffffffffffffffffffffffffffffffffffffffff021916908373ffffffffffffffffffffffffffffffffffffffff1602179055508173ffffffffffffffffffffffffffffffffffffffff168173ffffffffffffffffffffffffffffffffffffffff167f8be0079c531659141344cd1fd0a4f28419497f9722a3daafe3b4186f6b6457e060405160405180910390a35050565b600073ffffffffffffffffffffffffffffffffffffffff168273ffffffffffffffffffffffffffffffffffffffff1603610c365760006040517fced3e100000000000000000000000000000000000000000000000000000000008152600401610c2d9190611f19565b60405180910390fd5b80600160008573ffffffffffffffffffffffffffffffffffffffff1673ffffffffffffffffffffffffffffffffffffffff16815260200190815260200160002060008473ffffffffffffffffffffffffffffffffffffffff1673ffffffffffffffffffffffffffffffffffffffff16815260200190815260200160002060006101000a81548160ff0219169083151502179055508173ffffffffffffffffffffffffffffffffffffffff168373ffffffffffffffffffffffffffffffffffffffff167f17307eab39ab6107e8899845ad3d59bd9653f200f220920489ca2b5937696c3183604051610d279190611929565b60405180910390a3505050565b600073ffffffffffffffffffffffffffffffffffffffff168373ffffffffffffffffffffffffffffffffffffffff1603610da65760006040517f01a83514000000000000000000000000000000000000000000000000000000008152600401610d9d9190611f19565b60405180910390fd5b600080610db38484611031565b91509150610dd4856000848460405180602001604052806000815250610f7f565b5050505050565b600073ffffffffffffffffffffffffffffffffffffffff168473ffffffffffffffffffffffffffffffffffffffff1603610e4d5760006040517f57f447ce000000000000000000000000000000000000000000000000000000008152600401610e449190611f19565b60405180910390fd5b600080610e5a8585611031565b91509150610e6c600087848487610f7f565b505050505050565b600073ffffffffffffffffffffffffffffffffffffffff168473ffffffffffffffffffffffffffffffffffffffff1603610ee65760006040517f57f447ce000000000000000000000000000000000000000000000000000000008152600401610edd9190611f19565b60405180910390fd5b600073ffffffffffffffffffffffffffffffffffffffff168573ffffffffffffffffffffffffffffffffffffffff1603610f585760006040517f01a83514000000000000000000000000000000000000000000000000000000008152600401610f4f9190611f19565b60405180910390fd5b600080610f658585611031565b91509150610f768787848487610f7f565b50505050505050565b610f8b85858585611061565b600073ffffffffffffffffffffffffffffffffffffffff168473ffffffffffffffffffffffffffffffffffffffff161461102a576000610fc961094f565b90506001845103611019576000610fea600086610a6390919063ffffffff16565b90506000611002600086610a6390919063ffffffff16565b905061101283898985858961140f565b5050611028565b6110278187878787876115c3565b5b505b5050505050565b60608060405191506001825283602083015260408201905060018152826020820152604081016040529250929050565b80518251146110ab57815181516040517f5b0599910000000000000000000000000000000000000000000000000000000081526004016110a292919061212d565b60405180910390fd5b60006110b561094f565b905060005b83518110156112ca5760006110d88286610a6390919063ffffffff16565b905060006110ef8386610a6390919063ffffffff16565b9050600073ffffffffffffffffffffffffffffffffffffffff168873ffffffffffffffffffffffffffffffffffffffff161461121c57600080600084815260200190815260200160002060008a73ffffffffffffffffffffffffffffffffffffffff1673ffffffffffffffffffffffffffffffffffffffff168152602001908152602001600020549050818110156111c457888183856040517f03dee4c50000000000000000000000000000000000000000000000000000000081526004016111bb94939291906121fc565b60405180910390fd5b81810360008085815260200190815260200160002060008b73ffffffffffffffffffffffffffffffffffffffff1673ffffffffffffffffffffffffffffffffffffffff16815260200190815260200160002081905550505b600073ffffffffffffffffffffffffffffffffffffffff168773ffffffffffffffffffffffffffffffffffffffff16146112b7578060008084815260200190815260200160002060008973ffffffffffffffffffffffffffffffffffffffff1673ffffffffffffffffffffffffffffffffffffffff16815260200190815260200160002060008282546112af9190612241565b925050819055505b5050806112c3906121b4565b90506110ba565b5060018351036113895760006112ea600085610a6390919063ffffffff16565b90506000611302600085610a6390919063ffffffff16565b90508573ffffffffffffffffffffffffffffffffffffffff168773ffffffffffffffffffffffffffffffffffffffff168473ffffffffffffffffffffffffffffffffffffffff167fc3d58168c5ae7397731d063d5bbf3d657854427343f4c083240f7aacaa2d0f62858560405161137a92919061212d565b60405180910390a45050611408565b8373ffffffffffffffffffffffffffffffffffffffff168573ffffffffffffffffffffffffffffffffffffffff168273ffffffffffffffffffffffffffffffffffffffff167f4a39dc06d4c0dbc64b70af90fd698a233a518aa5d07e595d983b8c0526c8f7fb86866040516113ff929190612275565b60405180910390a45b5050505050565b60008473ffffffffffffffffffffffffffffffffffffffff163b11156115bb578373ffffffffffffffffffffffffffffffffffffffff1663f23a6e6187878686866040518663ffffffff1660e01b8152600401611470959493929190612301565b6020604051808303816000875af19250505080156114ac57506040513d601f19601f820116820180604052508101906114a99190612370565b60015b611530573d80600081146114dc576040519150601f19603f3d011682016040523d82523d6000602084013e6114e1565b606091505b50600081510361152857846040517f57f447ce00000000000000000000000000000000000000000000000000000000815260040161151f9190611f19565b60405180910390fd5b805160208201fd5b63f23a6e6160e01b7bffffffffffffffffffffffffffffffffffffffffffffffffffffffff1916817bffffffffffffffffffffffffffffffffffffffffffffffffffffffff1916146115b957846040517f57f447ce0000000000000000000000000000000000000000000000000000000081526004016115b09190611f19565b60405180910390fd5b505b505050505050565b60008473ffffffffffffffffffffffffffffffffffffffff163b111561176f578373ffffffffffffffffffffffffffffffffffffffff1663bc197c8187878686866040518663ffffffff1660e01b815260040161162495949392919061239d565b6020604051808303816000875af192505050801561166057506040513d601f19601f8201168201806040525081019061165d9190612370565b60015b6116e4573d8060008114611690576040519150601f19603f3d011682016040523d82523d6000602084013e611695565b606091505b5060008151036116dc57846040517f57f447ce0000000000000000000000000000000000000000000000000000000081526004016116d39190611f19565b60405180910390fd5b805160208201fd5b63bc197c8160e01b7bffffffffffffffffffffffffffffffffffffffffffffffffffffffff1916817bffffffffffffffffffffffffffffffffffffffffffffffffffffffff19161461176d57846040517f57f447ce0000000000000000000000000000000000000000000000000000000081526004016117649190611f19565b60405180910390fd5b505b505050505050565b6000604051905090565b600080fd5b600080fd5b600073ffffffffffffffffffffffffffffffffffffffff82169050919050565b60006117b68261178b565b9050919050565b6117c6816117ab565b81146117d157600080fd5b50565b6000813590506117e3816117bd565b92915050565b6000819050919050565b6117fc816117e9565b811461180757600080fd5b50565b600081359050611819816117f3565b92915050565b6000806040838503121561183657611835611781565b5b6000611844858286016117d4565b92505060206118558582860161180a565b9150509250929050565b611868816117e9565b82525050565b6000602082019050611883600083018461185f565b92915050565b60007fffffffff0000000000000000000000000000000000000000000000000000000082169050919050565b6118be81611889565b81146118c957600080fd5b50565b6000813590506118db816118b5565b92915050565b6000602082840312156118f7576118f6611781565b5b6000611905848285016118cc565b91505092915050565b60008115159050919050565b6119238161190e565b82525050565b600060208201905061193e600083018461191a565b92915050565b60006020828403121561195a57611959611781565b5b60006119688482850161180a565b91505092915050565b600081519050919050565b600082825260208201905092915050565b60005b838110156119ab578082015181840152602081019050611990565b60008484015250505050565b6000601f19601f8301169050919050565b60006119d382611971565b6119dd818561197c565b93506119ed81856020860161198d565b6119f6816119b7565b840191505092915050565b60006020820190508181036000830152611a1b81846119c8565b905092915050565b600080fd5b7f4e487b7100000000000000000000000000000000000000000000000000000000600052604160045260246000fd5b611a60826119b7565b810181811067ffffffffffffffff82111715611a7f57611a7e611a28565b5b80604052505050565b6000611a92611777565b9050611a9e8282611a57565b919050565b600067ffffffffffffffff821115611abe57611abd611a28565b5b602082029050602081019050919050565b600080fd5b6000611ae7611ae284611aa3565b611a88565b90508083825260208201905060208402830185811115611b0a57611b09611acf565b5b835b81811015611b335780611b1f888261180a565b845260208401935050602081019050611b0c565b5050509392505050565b600082601f830112611b5257611b51611a23565b5b8135611b62848260208601611ad4565b91505092915050565b600080fd5b600067ffffffffffffffff821115611b8b57611b8a611a28565b5b611b94826119b7565b9050602081019050919050565b82818337600083830152505050565b6000611bc3611bbe84611b70565b611a88565b905082815260208101848484011115611bdf57611bde611b6b565b5b611bea848285611ba1565b509392505050565b600082601f830112611c0757611c06611a23565b5b8135611c17848260208601611bb0565b91505092915050565b600080600080600060a08688031215611c3c57611c3b611781565b5b6000611c4a888289016117d4565b9550506020611c5b888289016117d4565b945050604086013567ffffffffffffffff811115611c7c57611c7b611786565b5b611c8888828901611b3d565b935050606086013567ffffffffffffffff811115611ca957611ca8611786565b5b611cb588828901611b3d565b925050608086013567ffffffffffffffff811115611cd657611cd5611786565b5b611ce288828901611bf2565b9150509295509295909350565b600067ffffffffffffffff821115611d0a57611d09611a28565b5b602082029050602081019050919050565b6000611d2e611d2984611cef565b611a88565b90508083825260208201905060208402830185811115611d5157611d50611acf565b5b835b81811015611d7a5780611d6688826117d4565b845260208401935050602081019050611d53565b5050509392505050565b600082601f830112611d9957611d98611a23565b5b8135611da9848260208601611d1b565b91505092915050565b60008060408385031215611dc957611dc8611781565b5b600083013567ffffffffffffffff811115611de757611de6611786565b5b611df385828601611d84565b925050602083013567ffffffffffffffff811115611e1457611e13611786565b5b611e2085828601611b3d565b9150509250929050565b600081519050919050565b600082825260208201905092915050565b6000819050602082019050919050565b611e5f816117e9565b82525050565b6000611e718383611e56565b60208301905092915050565b6000602082019050919050565b6000611e9582611e2a565b611e9f8185611e35565b9350611eaa83611e46565b8060005b83811015611edb578151611ec28882611e65565b9750611ecd83611e7d565b925050600181019050611eae565b5085935050505092915050565b60006020820190508181036000830152611f028184611e8a565b905092915050565b611f13816117ab565b82525050565b6000602082019050611f2e6000830184611f0a565b92915050565b611f3d8161190e565b8114611f4857600080fd5b50565b600081359050611f5a81611f34565b92915050565b60008060408385031215611f7757611f76611781565b5b6000611f85858286016117d4565b9250506020611f9685828601611f4b565b9150509250929050565b600060208284031215611fb657611fb5611781565b5b6000611fc4848285016117d4565b91505092915050565b60008060408385031215611fe457611fe3611781565b5b6000611ff2858286016117d4565b9250506020612003858286016117d4565b9150509250929050565b600080600080600060a0868803121561202957612028611781565b5b6000612037888289016117d4565b9550506020612048888289016117d4565b94505060406120598882890161180a565b935050606061206a8882890161180a565b925050608086013567ffffffffffffffff81111561208b5761208a611786565b5b61209788828901611bf2565b9150509295509295909350565b7f4e487b7100000000000000000000000000000000000000000000000000000000600052602260045260246000fd5b600060028204905060018216806120eb57607f821691505b6020821081036120fe576120fd6120a4565b5b50919050565b60006040820190506121196000830185611f0a565b6121266020830184611f0a565b9392505050565b6000604082019050612142600083018561185f565b61214f602083018461185f565b9392505050565b7f4e487b7100000000000000000000000000000000000000000000000000000000600052603260045260246000fd5b7f4e487b7100000000000000000000000000000000000000000000000000000000600052601160045260246000fd5b60006121bf826117e9565b91507fffffffffffffffffffffffffffffffffffffffffffffffffffffffffffffffff82036121f1576121f0612185565b5b600182019050919050565b60006080820190506122116000830187611f0a565b61221e602083018661185f565b61222b604083018561185f565b612238606083018461185f565b95945050505050565b600061224c826117e9565b9150612257836117e9565b925082820190508082111561226f5761226e612185565b5b92915050565b6000604082019050818103600083015261228f8185611e8a565b905081810360208301526122a38184611e8a565b90509392505050565b600081519050919050565b600082825260208201905092915050565b60006122d3826122ac565b6122dd81856122b7565b93506122ed81856020860161198d565b6122f6816119b7565b840191505092915050565b600060a0820190506123166000830188611f0a565b6123236020830187611f0a565b612330604083018661185f565b61233d606083018561185f565b818103608083015261234f81846122c8565b90509695505050505050565b60008151905061236a816118b5565b92915050565b60006020828403121561238657612385611781565b5b60006123948482850161235b565b91505092915050565b600060a0820190506123b26000830188611f0a565b6123bf6020830187611f0a565b81810360408301526123d18186611e8a565b905081810360608301526123e58185611e8a565b905081810360808301526123f981846122c8565b9050969550505050505056fea264697066735822122075fe55c9a2059fcd85fe962d946cf55e361b4e90ec8d40d172389cadf4aad83864736f6c63430008140033",
  "linkReferences": {},
  "deployedLinkReferences": {}
}