{
  "_format": "hh-sol-artifact-1",
  "contractName": "MockUniswap",
  "sourceName": "contracts/mocks/MockUniswap.sol",
  "abi": [
    {
      "anonymous": false,
      "inputs": [
        {
          "indexed": false,
          "internalType": "uint256",
          "name": "amount",
          "type": "uint256"
        },
        {
          "indexed": false,
          "internalType": "address",
          "name": "to",
          "type": "address"
        }
      ],
      "name": "SwapExecuted",
      "type": "event"
    },
    {
      "inputs": [
        {
          "internalType": "uint256",
          "name": "",
          "type": "uint256"
        },
        {
          "internalType": "address[]",
          "name": "",
          "type": "address[]"
        },
        {
          "internalType": "address",
          "name": "to",
          "type": "address"
        },
        {
          "internalType": "uint256",
          "name": "",
          "type": "uint256"
        }
      ],
      "name": "swapExactETHForTokens",
      "outputs": [
        {
          "internalType": "uint256[]",
          "name": "amounts",
          "type": "uint256[]"
        }
      ],
      "stateMutability": "payable",
      "type": "function"
    }
  ],
  "bytecode": "0x608060405234801561001057600080fd5b5061044a806100206000396000f3fe60806040526004361061001e5760003560e01c80637ff36ab514610023575b600080fd5b61003d60048036038101906100389190610207565b610053565b60405161004a919061034d565b60405180910390f35b6060600167ffffffffffffffff8111156100705761006f61036f565b5b60405190808252806020026020018201604052801561009e5781602001602082028036833780820191505090505b50905034816000815181106100b6576100b561039e565b5b6020026020010181815250507f5e151cf22271fbddd8ba632d1dfc6790556a3990827574210cf70d2ed216a50534846040516100f39291906103eb565b60405180910390a195945050505050565b600080fd5b600080fd5b6000819050919050565b6101218161010e565b811461012c57600080fd5b50565b60008135905061013e81610118565b92915050565b600080fd5b600080fd5b600080fd5b60008083601f84011261016957610168610144565b5b8235905067ffffffffffffffff81111561018657610185610149565b5b6020830191508360208202830111156101a2576101a161014e565b5b9250929050565b600073ffffffffffffffffffffffffffffffffffffffff82169050919050565b60006101d4826101a9565b9050919050565b6101e4816101c9565b81146101ef57600080fd5b50565b600081359050610201816101db565b92915050565b60008060008060006080868803121561022357610222610104565b5b60006102318882890161012f565b955050602086013567ffffffffffffffff81111561025257610251610109565b5b61025e88828901610153565b94509450506040610271888289016101f2565b92505060606102828882890161012f565b9150509295509295909350565b600081519050919050565b600082825260208201905092915050565b6000819050602082019050919050565b6102c48161010e565b82525050565b60006102d683836102bb565b60208301905092915050565b6000602082019050919050565b60006102fa8261028f565b610304818561029a565b935061030f836102ab565b8060005b8381101561034057815161032788826102ca565b9750610332836102e2565b925050600181019050610313565b5085935050505092915050565b6000602082019050818103600083015261036781846102ef565b905092915050565b7f4e487b7100000000000000000000000000000000000000000000000000000000600052604160045260246000fd5b7f4e487b7100000000000000000000000000000000000000000000000000000000600052603260045260246000fd5b6103d68161010e565b82525050565b6103e5816101c9565b82525050565b600060408201905061040060008301856103cd565b61040d60208301846103dc565b939250505056fea264697066735822122021b4322b5bf5ac40ab0459805db0a1a00be963691faec936b4949e596ab0f09264736f6c63430008140033",
  "linkReferences": {},
  "deployedLinkReferences": {}
}