{
  "_format": "hh-sol-artifact-1",
  "contractName": "Escrow",
  "sourceName": "contracts/Escrow.sol",
  "abi": [
    {
      "inputs": [
        {
          "internalType": "address",
          "name": "_freelancer",
          "type": "address"
        },
        {
          "internalType": "uint256",
          "name": "_deadline",
          "type": "uint256"
        },
        {
          "internalType": "address",
          "name": "_reputation",
          "type": "address"
        },
        {
          "internalType": "address",
          "name": "_uniswap",
          "type": "address"
        },
        {
          "internalType": "address",
          "name": "_stableToken",
          "type": "address"
        }
      ],
      "stateMutability": "payable",
      "type": "constructor"
    },
    {
      "inputs": [],
      "name": "amount",
      "outputs": [
        {
          "internalType": "uint256",
          "name": "",
          "type": "uint256"
        }
      ],
      "stateMutability": "view",
      "type": "function"
    },
    {
      "inputs": [
        {
          "internalType": "bytes",
          "name": "",
          "type": "bytes"
        }
      ],
      "name": "checkUpkeep",
      "outputs": [
        {
          "internalType": "bool",
          "name": "upkeepNeeded",
          "type": "bool"
        },
        {
          "internalType": "bytes",
          "name": "performData",
          "type": "bytes"
        }
      ],
      "stateMutability": "view",
      "type": "function"
    },
    {
      "inputs": [],
      "name": "client",
      "outputs": [
        {
          "internalType": "address",
          "name": "",
          "type": "address"
        }
      ],
      "stateMutability": "view",
      "type": "function"
    },
    {
      "inputs": [],
      "name": "deadline",
      "outputs": [
        {
          "internalType": "uint256",
          "name": "",
          "type": "uint256"
        }
      ],
      "stateMutability": "view",
      "type": "function"
    },
    {
      "inputs": [],
      "name": "freelancer",
      "outputs": [
        {
          "internalType": "address",
          "name": "",
          "type": "address"
        }
      ],
      "stateMutability": "view",
      "type": "function"
    },
    {
      "inputs": [
        {
          "internalType": "bytes",
          "name": "",
          "type": "bytes"
        }
      ],
      "name": "performUpkeep",
      "outputs": [],
      "stateMutability": "nonpayable",
      "type": "function"
    },
    {
      "inputs": [
        {
          "internalType": "uint256",
          "name": "score",
          "type": "uint256"
        }
      ],
      "name": "release",
      "outputs": [],
      "stateMutability": "nonpayable",
      "type": "function"
    },
    {
      "inputs": [],
      "name": "released",
      "outputs": [
        {
          "internalType": "bool",
          "name": "",
          "type": "bool"
        }
      ],
      "stateMutability": "view",
      "type": "function"
    },
    {
      "inputs": [],
      "name": "reputation",
      "outputs": [
        {
          "internalType": "contract IReputation",
          "name": "",
          "type": "address"
        }
      ],
      "stateMutability": "view",
      "type": "function"
    },
    {
      "inputs": [],
      "name": "stableToken",
      "outputs": [
        {
          "internalType": "address",
          "name": "",
          "type": "address"
        }
      ],
      "stateMutability": "view",
      "type": "function"
    },
    {
      "inputs": [
        {
          "internalType": "uint256",
          "name": "minOut",
          "type": "uint256"
        }
      ],
      "name": "swapToStable",
      "outputs": [],
      "stateMutability": "nonpayable",
      "type": "function"
    },
    {
      "inputs": [],
      "name": "uniswap",
      "outputs": [
        {
          "internalType": "contract IUniswap",
          "name": "",
          "type": "address"
        }
      ],
      "stateMutability": "view",
      "type": "function"
    }
  ],
  "bytecode": "0x6101606040526040516200176a3803806200176a83398181016040528101906200002a919062000237565b6000341162000070576040517f08c379a0000000000000000000000000000000000000000000000000000000008152600401620000679062000320565b60405180910390fd5b3373ffffffffffffffffffffffffffffffffffffffff1660808173ffffffffffffffffffffffffffffffffffffffff16815250508473ffffffffffffffffffffffffffffffffffffffff1660a08173ffffffffffffffffffffffffffffffffffffffff16815250503460c081815250508360e081815250508273ffffffffffffffffffffffffffffffffffffffff166101008173ffffffffffffffffffffffffffffffffffffffff16815250508173ffffffffffffffffffffffffffffffffffffffff166101208173ffffffffffffffffffffffffffffffffffffffff16815250508073ffffffffffffffffffffffffffffffffffffffff166101408173ffffffffffffffffffffffffffffffffffffffff1681525050505050505062000342565b600080fd5b600073ffffffffffffffffffffffffffffffffffffffff82169050919050565b6000620001c48262000197565b9050919050565b620001d681620001b7565b8114620001e257600080fd5b50565b600081519050620001f681620001cb565b92915050565b6000819050919050565b6200021181620001fc565b81146200021d57600080fd5b50565b600081519050620002318162000206565b92915050565b600080600080600060a0868803121562000256576200025562000192565b5b60006200026688828901620001e5565b9550506020620002798882890162000220565b94505060406200028c88828901620001e5565b93505060606200029f88828901620001e5565b9250506080620002b288828901620001e5565b9150509295509295909350565b600082825260208201905092915050565b7f4e6f2066756e6473000000000000000000000000000000000000000000000000600082015250565b600062000308600883620002bf565b91506200031582620002d0565b602082019050919050565b600060208201905081810360008301526200033b81620002f9565b9050919050565b60805160a05160c05160e051610100516101205161014051611372620003f8600039600081816107b801526109aa0152600081816102540152610a190152600081816104840152610b00015260008181610278015281816106070152610743015260008181610437015281816106be015281816107dc0152610a550152600081816103fd015281816104c00152818161068401526107940152600081816102300152818161029c015261080001526113726000f3fe608060405234801561001057600080fd5b50600436106100b45760003560e01c80639613252111610071578063961325211461017c578063a37dda2c1461019a578063a9d75b2b146101b8578063aa8c217c146101d6578063afa4426b146101f4578063c52164c614610210576100b4565b8063109e94cf146100b95780632681f7e4146100d757806329dcb0cf146100f557806337bdc99b146101135780634585e33b1461012f5780636e04ff0d1461014b575b600080fd5b6100c161022e565b6040516100ce9190610b63565b60405180910390f35b6100df610252565b6040516100ec9190610bdd565b60405180910390f35b6100fd610276565b60405161010a9190610c11565b60405180910390f35b61012d60048036038101906101289190610c6c565b61029a565b005b61014960048036038101906101449190610cfe565b61054c565b005b61016560048036038101906101609190610cfe565b610727565b604051610173929190610df6565b60405180910390f35b610184610781565b6040516101919190610e26565b60405180910390f35b6101a2610792565b6040516101af9190610b63565b60405180910390f35b6101c06107b6565b6040516101cd9190610b63565b60405180910390f35b6101de6107da565b6040516101eb9190610c11565b60405180910390f35b61020e60048036038101906102099190610c6c565b6107fe565b005b610218610afe565b6040516102259190610e62565b60405180910390f35b7f000000000000000000000000000000000000000000000000000000000000000081565b7f000000000000000000000000000000000000000000000000000000000000000081565b7f000000000000000000000000000000000000000000000000000000000000000081565b7f000000000000000000000000000000000000000000000000000000000000000073ffffffffffffffffffffffffffffffffffffffff163373ffffffffffffffffffffffffffffffffffffffff1614610328576040517f08c379a000000000000000000000000000000000000000000000000000000000815260040161031f90610eda565b60405180910390fd5b600060019054906101000a900460ff1615610378576040517f08c379a000000000000000000000000000000000000000000000000000000000815260040161036f90610f46565b60405180910390fd5b6001600060016101000a81548160ff02191690831515021790555060008054906101000a900460ff16156103e1576040517f08c379a00000000000000000000000000000000000000000000000000000000081526004016103d890610fb2565b60405180910390fd5b60016000806101000a81548160ff0219169083151502179055507f000000000000000000000000000000000000000000000000000000000000000073ffffffffffffffffffffffffffffffffffffffff166108fc7f00000000000000000000000000000000000000000000000000000000000000009081150290604051600060405180830381858888f19350505050158015610481573d6000803e3d6000fd5b507f000000000000000000000000000000000000000000000000000000000000000073ffffffffffffffffffffffffffffffffffffffff1663f5c91a087f0000000000000000000000000000000000000000000000000000000000000000836040518363ffffffff1660e01b81526004016104fd929190610fd2565b600060405180830381600087803b15801561051757600080fd5b505af115801561052b573d6000803e3d6000fd5b5050505060008060016101000a81548160ff02191690831515021790555050565b600060019054906101000a900460ff161561059c576040517f08c379a000000000000000000000000000000000000000000000000000000000815260040161059390610f46565b60405180910390fd5b6001600060016101000a81548160ff02191690831515021790555060008054906101000a900460ff1615610605576040517f08c379a00000000000000000000000000000000000000000000000000000000081526004016105fc90610fb2565b60405180910390fd5b7f0000000000000000000000000000000000000000000000000000000000000000421015610668576040517f08c379a000000000000000000000000000000000000000000000000000000000815260040161065f90611047565b60405180910390fd5b60016000806101000a81548160ff0219169083151502179055507f000000000000000000000000000000000000000000000000000000000000000073ffffffffffffffffffffffffffffffffffffffff166108fc7f00000000000000000000000000000000000000000000000000000000000000009081150290604051600060405180830381858888f19350505050158015610708573d6000803e3d6000fd5b5060008060016101000a81548160ff0219169083151502179055505050565b6000606060008054906101000a900460ff1615801561076657507f00000000000000000000000000000000000000000000000000000000000000004210155b91506040518060200160405280600081525090509250929050565b60008054906101000a900460ff1681565b7f000000000000000000000000000000000000000000000000000000000000000081565b7f000000000000000000000000000000000000000000000000000000000000000081565b7f000000000000000000000000000000000000000000000000000000000000000081565b7f000000000000000000000000000000000000000000000000000000000000000073ffffffffffffffffffffffffffffffffffffffff163373ffffffffffffffffffffffffffffffffffffffff161461088c576040517f08c379a000000000000000000000000000000000000000000000000000000000815260040161088390610eda565b60405180910390fd5b600060019054906101000a900460ff16156108dc576040517f08c379a00000000000000000000000000000000000000000000000000000000081526004016108d390610f46565b60405180910390fd5b6001600060016101000a81548160ff0219169083151502179055506000600267ffffffffffffffff81111561091457610913611067565b5b6040519080825280602002602001820160405280156109425781602001602082028036833780820191505090505b50905073eeeeeeeeeeeeeeeeeeeeeeeeeeeeeeeeeeeeeeee8160008151811061096e5761096d611096565b5b602002602001019073ffffffffffffffffffffffffffffffffffffffff16908173ffffffffffffffffffffffffffffffffffffffff16815250507f0000000000000000000000000000000000000000000000000000000000000000816001815181106109dd576109dc611096565b5b602002602001019073ffffffffffffffffffffffffffffffffffffffff16908173ffffffffffffffffffffffffffffffffffffffff16815250507f000000000000000000000000000000000000000000000000000000000000000073ffffffffffffffffffffffffffffffffffffffff16637ff36ab57f0000000000000000000000000000000000000000000000000000000000000000848430426040518663ffffffff1660e01b8152600401610a979493929190611183565b60006040518083038185885af1158015610ab5573d6000803e3d6000fd5b50505050506040513d6000823e3d601f19601f82011682018060405250810190610adf91906112f3565b505060008060016101000a81548160ff02191690831515021790555050565b7f000000000000000000000000000000000000000000000000000000000000000081565b600073ffffffffffffffffffffffffffffffffffffffff82169050919050565b6000610b4d82610b22565b9050919050565b610b5d81610b42565b82525050565b6000602082019050610b786000830184610b54565b92915050565b6000819050919050565b6000610ba3610b9e610b9984610b22565b610b7e565b610b22565b9050919050565b6000610bb582610b88565b9050919050565b6000610bc782610baa565b9050919050565b610bd781610bbc565b82525050565b6000602082019050610bf26000830184610bce565b92915050565b6000819050919050565b610c0b81610bf8565b82525050565b6000602082019050610c266000830184610c02565b92915050565b6000604051905090565b600080fd5b600080fd5b610c4981610bf8565b8114610c5457600080fd5b50565b600081359050610c6681610c40565b92915050565b600060208284031215610c8257610c81610c36565b5b6000610c9084828501610c57565b91505092915050565b600080fd5b600080fd5b600080fd5b60008083601f840112610cbe57610cbd610c99565b5b8235905067ffffffffffffffff811115610cdb57610cda610c9e565b5b602083019150836001820283011115610cf757610cf6610ca3565b5b9250929050565b60008060208385031215610d1557610d14610c36565b5b600083013567ffffffffffffffff811115610d3357610d32610c3b565b5b610d3f85828601610ca8565b92509250509250929050565b60008115159050919050565b610d6081610d4b565b82525050565b600081519050919050565b600082825260208201905092915050565b60005b83811015610da0578082015181840152602081019050610d85565b60008484015250505050565b6000601f19601f8301169050919050565b6000610dc882610d66565b610dd28185610d71565b9350610de2818560208601610d82565b610deb81610dac565b840191505092915050565b6000604082019050610e0b6000830185610d57565b8181036020830152610e1d8184610dbd565b90509392505050565b6000602082019050610e3b6000830184610d57565b92915050565b6000610e4c82610baa565b9050919050565b610e5c81610e41565b82525050565b6000602082019050610e776000830184610e53565b92915050565b600082825260208201905092915050565b7f4e6f7420636c69656e7400000000000000000000000000000000000000000000600082015250565b6000610ec4600a83610e7d565b9150610ecf82610e8e565b602082019050919050565b60006020820190508181036000830152610ef381610eb7565b9050919050565b7f5265656e7472616e742063616c6c000000000000000000000000000000000000600082015250565b6000610f30600e83610e7d565b9150610f3b82610efa565b602082019050919050565b60006020820190508181036000830152610f5f81610f23565b9050919050565b7f416c72656164792072656c656173656400000000000000000000000000000000600082015250565b6000610f9c601083610e7d565b9150610fa782610f66565b602082019050919050565b60006020820190508181036000830152610fcb81610f8f565b9050919050565b6000604082019050610fe76000830185610b54565b610ff46020830184610c02565b9392505050565b7f546f6f206561726c790000000000000000000000000000000000000000000000600082015250565b6000611031600983610e7d565b915061103c82610ffb565b602082019050919050565b6000602082019050818103600083015261106081611024565b9050919050565b7f4e487b7100000000000000000000000000000000000000000000000000000000600052604160045260246000fd5b7f4e487b7100000000000000000000000000000000000000000000000000000000600052603260045260246000fd5b600081519050919050565b600082825260208201905092915050565b6000819050602082019050919050565b6110fa81610b42565b82525050565b600061110c83836110f1565b60208301905092915050565b6000602082019050919050565b6000611130826110c5565b61113a81856110d0565b9350611145836110e1565b8060005b8381101561117657815161115d8882611100565b975061116883611118565b925050600181019050611149565b5085935050505092915050565b60006080820190506111986000830187610c02565b81810360208301526111aa8186611125565b90506111b96040830185610b54565b6111c66060830184610c02565b95945050505050565b6111d882610dac565b810181811067ffffffffffffffff821117156111f7576111f6611067565b5b80604052505050565b600061120a610c2c565b905061121682826111cf565b919050565b600067ffffffffffffffff82111561123657611235611067565b5b602082029050602081019050919050565b60008151905061125681610c40565b92915050565b600061126f61126a8461121b565b611200565b9050808382526020820190506020840283018581111561129257611291610ca3565b5b835b818110156112bb57806112a78882611247565b845260208401935050602081019050611294565b5050509392505050565b600082601f8301126112da576112d9610c99565b5b81516112ea84826020860161125c565b91505092915050565b60006020828403121561130957611308610c36565b5b600082015167ffffffffffffffff81111561132757611326610c3b565b5b611333848285016112c5565b9150509291505056fea26469706673582212206362fff635336ae5abacfdd5400a8063d2fd254b21fc0dc525b846cf95396d4864736f6c63430008140033",
  "linkReferences": {},
  "deployedLinkReferences": {}
}