{
  "_format": "hh-sol-artifact-1",
  "contractName": "ReputationRegistry",
  "sourceName": "contracts/ReputationRegistry.sol",
  "abi": [
    {
      "inputs": [
        {
          "internalType": "address",
          "name": "_escrow",
          "type": "address"
        }
      ],
      "stateMutability": "nonpayable",
      "type": "constructor"
    },
    {
      "inputs": [
        {
          "internalType": "address",
          "name": "",
          "type": "address"
        }
      ],
      "name": "completedJobs",
      "outputs": [
        {
          "internalType": "uint256",
          "name": "",
          "type": "uint256"
        }
      ],
      "stateMutability": "view",
      "type": "function"
    },
    {
      "inputs": [],
      "name": "escrow",
      "outputs": [
        {
          "internalType": "address",
          "name": "",
          "type": "address"
        }
      ],
      "stateMutability": "view",
      "type": "function"
    },
    {
      "inputs": [
        {
          "internalType": "address",
          "name": "freelancer",
          "type": "address"
        }
      ],
      "name": "getAverageScore",
      "outputs": [
        {
          "internalType": "uint256",
          "name": "",
          "type": "uint256"
        }
      ],
      "stateMutability": "view",
      "type": "function"
    },
    {
      "inputs": [
        {
          "internalType": "address",
          "name": "",
          "type": "address"
        }
      ],
      "name": "totalScore",
      "outputs": [
        {
          "internalType": "uint256",
          "name": "",
          "type": "uint256"
        }
      ],
      "stateMutability": "view",
      "type": "function"
    },
    {
      "inputs": [
        {
          "internalType": "address",
          "name": "freelancer",
          "type": "address"
        },
        {
          "internalType": "uint256",
          "name": "score",
          "type": "uint256"
        }
      ],
      "name": "updateReputation",
      "outputs": [],
      "stateMutability": "nonpayable",
      "type": "function"
    }
  ],
  "bytecode": "0x608060405234801561001057600080fd5b50604051610835380380610835833981810160405281019061003291906100dc565b80600260006101000a81548173ffffffffffffffffffffffffffffffffffffffff021916908373ffffffffffffffffffffffffffffffffffffffff16021790555050610109565b600080fd5b600073ffffffffffffffffffffffffffffffffffffffff82169050919050565b60006100a98261007e565b9050919050565b6100b98161009e565b81146100c457600080fd5b50565b6000815190506100d6816100b0565b92915050565b6000602082840312156100f2576100f1610079565b5b6000610100848285016100c7565b91505092915050565b61071d806101186000396000f3fe608060405234801561001057600080fd5b50600436106100575760003560e01c806355f1f3101461005c57806384eda6621461008c578063d06509fd146100bc578063e2fdcc17146100ec578063f5c91a081461010a575b600080fd5b61007660048036038101906100719190610444565b610126565b604051610083919061048a565b60405180910390f35b6100a660048036038101906100a19190610444565b61013e565b6040516100b3919061048a565b60405180910390f35b6100d660048036038101906100d19190610444565b610156565b6040516100e3919061048a565b60405180910390f35b6100f4610237565b60405161010191906104b4565b60405180910390f35b610124600480360381019061011f91906104fb565b61025d565b005b60006020528060005260406000206000915090505481565b60016020528060005260406000206000915090505481565b6000806000808473ffffffffffffffffffffffffffffffffffffffff1673ffffffffffffffffffffffffffffffffffffffff16815260200190815260200160002054036101a65760009050610232565b6000808373ffffffffffffffffffffffffffffffffffffffff1673ffffffffffffffffffffffffffffffffffffffff16815260200190815260200160002054600160008473ffffffffffffffffffffffffffffffffffffffff1673ffffffffffffffffffffffffffffffffffffffff1681526020019081526020016000205461022f9190610599565b90505b919050565b600260009054906101000a900473ffffffffffffffffffffffffffffffffffffffff1681565b600260009054906101000a900473ffffffffffffffffffffffffffffffffffffffff1673ffffffffffffffffffffffffffffffffffffffff163373ffffffffffffffffffffffffffffffffffffffff16146102ed576040517f08c379a00000000000000000000000000000000000000000000000000000000081526004016102e490610627565b60405180910390fd5b6005811115610331576040517f08c379a000000000000000000000000000000000000000000000000000000000815260040161032890610693565b60405180910390fd5b60016000808473ffffffffffffffffffffffffffffffffffffffff1673ffffffffffffffffffffffffffffffffffffffff168152602001908152602001600020600082825461038091906106b3565b9250508190555080600160008473ffffffffffffffffffffffffffffffffffffffff1673ffffffffffffffffffffffffffffffffffffffff16815260200190815260200160002060008282546103d691906106b3565b925050819055505050565b600080fd5b600073ffffffffffffffffffffffffffffffffffffffff82169050919050565b6000610411826103e6565b9050919050565b61042181610406565b811461042c57600080fd5b50565b60008135905061043e81610418565b92915050565b60006020828403121561045a576104596103e1565b5b60006104688482850161042f565b91505092915050565b6000819050919050565b61048481610471565b82525050565b600060208201905061049f600083018461047b565b92915050565b6104ae81610406565b82525050565b60006020820190506104c960008301846104a5565b92915050565b6104d881610471565b81146104e357600080fd5b50565b6000813590506104f5816104cf565b92915050565b60008060408385031215610512576105116103e1565b5b60006105208582860161042f565b9250506020610531858286016104e6565b9150509250929050565b7f4e487b7100000000000000000000000000000000000000000000000000000000600052601260045260246000fd5b7f4e487b7100000000000000000000000000000000000000000000000000000000600052601160045260246000fd5b60006105a482610471565b91506105af83610471565b9250826105bf576105be61053b565b5b828204905092915050565b600082825260208201905092915050565b7f4f6e6c7920657363726f77000000000000000000000000000000000000000000600082015250565b6000610611600b836105ca565b915061061c826105db565b602082019050919050565b6000602082019050818103600083015261064081610604565b9050919050565b7f4d61782035000000000000000000000000000000000000000000000000000000600082015250565b600061067d6005836105ca565b915061068882610647565b602082019050919050565b600060208201905081810360008301526106ac81610670565b9050919050565b60006106be82610471565b91506106c983610471565b92508282019050808211156106e1576106e061056a565b5b9291505056fea26469706673582212201d35df89f5013867547c8cbedeea29db2c8c807457c01ee907e8625c931884ff64736f6c63430008140033",
  "linkReferences": {},
  "deployedLinkReferences": {}
}